:1000000071C000008EC000008CC0000031C2000032
:1000100088C000000FC2000017C2000082C00000AC
:1000200080C000007EC000007CC000007AC00000DC
:1000300078C0000076C0000074C0000072C00000EC
:1000400070C000006EC000006CC000006AC00000FC
:1000500068C0000066C0000064C000008AC10000E3
:1000600060C000002AC200005CC000005AC000004E
:1000700058C0000056C0000054C0000052C000002C
:1000800050C000004EC000004CC000004AC000003C
:1000900048C0000046C0000044C0000042C000004C
:1000A00040C000003EC000003CC000003AC000005C
:1000B00038C0000036C0000034C0000032C000006C
:1000C00030C000002EC000002CC000002AC000007C
:1000D00028C0000026C0000024C0000022C000008C
:1000E00020C0000011241FBECFEFD1E2DEBFCDBF84
:1000F00000E00CBF12E0A0E0B2E0ECE4F7E000E0CA
:100100000BBF02C007900D92A030B107D9F722E0D3
:10011000A0E0B2E001C01D92A934B207E1F7C5D05A
:1001200013C36ECFE1ECF0E0808188698083A2EC9C
:10013000B0E08C9186608C9380818068808310927F
:10014000C50087E68093C4000895EEE6F0E0808164
:100150008160808385B5846085BD16BC0895E0E824
:10016000F0E08081836A8083E1E8F0E0808189604B
:10017000808384B1806684B91092890010928800CF
:1001800010928B0010928A000895E0E9F0E08081DF
:10019000826C8083E1E9F0E080818C61808382EE73
:1001A00094E09093970080939600909399008093A9
:1001B00098006B9A0895E1E2F1E080818760808386
:1001C0001092250110922401089552985A9A6D9820
:1001D000759AE9E6F0E0808180628083EAE6F0E0EB
:1001E00080818A6080838DB384638DBB08959091F4
:1001F000C00095FFFCCF8093C600089528B1207FF2
:1002000028B920E030E0662351F12817390719F1A9
:100210004398409AEFE3FFE13197F1F700C0000007
:100220004098419AEFE3FFE13197F1F700C00000F9
:100230004198429AEFE3FFE13197F1F700C00000E7
:100240004298439AEFE3FFE13197F1F700C00000D5
:100250002F5F3F4FDACF88B1807F88B90895281784
:100260003907C9F34198409AEFE3FFE13197F1F77D
:1002700000C000004098439AEFE3FFE13197F1F7A7
:1002800000C000004398429AEFE3FFE13197F1F795
:1002900000C000004298419AEFE3FFE13197F1F787
:1002A00000C000002F5F3F4FDACF3CDF4EDF57DF4B
:1002B0006CDF81DF8ADF84B1806984B987B18F60A8
:1002C00087B97894C3EDD4E080910002882309F4C3
:1002D00049C0809102028BDF8091030288DF809108
:1002E000040285DF8091020281110BC02F982091BA
:1002F00003028091040290E0922B909389008093F6
:10030000880080910202813059F42F9A20910302D3
:100310008091040290E0922B909389008093880052
:1003200080910202803421F4D0939900C093980008
:1003300080910202823041F42091030280910402F4
:1003400090E061E0922B5ADF80910202833041F409
:10035000209103028091040290E060E0922B4EDF36
:10036000109200028FE99FE00197F1F700C00000B2
:10037000ABCF1F920F920FB60F9211240BB60F92B4
:100380002F933F934F935F936F937F938F939F939D
:10039000AF93BF93EF93FF9380912C02803191F53F
:1003A000609124017091250180E090E0DCD06093A1
:1003B0000502709306028093070290930802109240
:1003C000250110922401609105027091060280912E
:1003D00007029091080220E030E0A90152D1609319
:1003E0002002709321028093220290932302609155
:1003F000050270910602809107029091080287D051
:10040000862FF5DE80912C028F5F80932C02FF9166
:10041000EF91BF91AF919F918F917F916F915F917C
:100420004F913F912F910F900BBE0F900FBE0F90E9
:100430001F9018951F920F920FB60F9211240F90D4
:100440000FBE0F901F9018951F920F920FB60F922C
:1004500011248F939F9383E994E090939900809364
:1004600098009F918F910F900FBE0F901F9018953D
:100470001F920F920FB60F9211242F938F939F9379
:1004800083E994E090939900809398002FEF89EF8F
:1004900090E0215080409040E1F700C0000085E8E6
:1004A00094E090939900809398009F918F912F9161
:1004B0000F900FBE0F901F9018951F920F920FB6BE
:1004C0000F9211240BB60F928F93EF93FF93E0914D
:1004D0000102F0E08091C600EE5FFD4F80838091C5
:1004E00001028F5F8093010280910102833028F026
:1004F0001092010281E080930002FF91EF918F91B1
:100500000F900BBE0F900FBE0F901F90189598D0B4
:1005100088F09F5790F0B92F9927B751A0F0D1F0EC
:10052000660F771F881F991F1AF0BA95C9F712C076
:10053000B13081F09FD0B1E008959CC0672F782F33
:100540008827B85F39F0B93FCCF3869577956795E2
:10055000B395D9F73EF490958095709561957F4F4E
:100560008F4F9F4F0895E89409C097FB3EF49095F4
:100570008095709561957F4F8F4F9F4F9923A9F07C
:10058000F92F96E9BB279395F6958795779567950B
:10059000B795F111F8CFFAF4BB0F11F460FF1BC04F
:1005A0006F5F7F4F8F4F9F4F16C0882311F096E9E2
:1005B00011C0772321F09EE8872F762F05C0662390
:1005C00071F096E8862F70E060E02AF09A95660F49
:1005D000771F881FDAF7880F9695879597F9089502
:1005E00097F99F6780E870E060E008959FEF80ECE6
:1005F000089500240A941616170618060906089589
:1006000000240A9412161306140605060895092EEE
:100610000394000C11F4882352F0BB0F40F4BF2B5D
:1006200011F460FF04C06F5F7F4F8F4F9F4F08959D
:1006300057FD9058440F551F59F05F3F71F0479593
:10064000880F97FB991F61F09F3F79F08795089578
:10065000121613061406551FF2CF4695F1DF08C097
:10066000161617061806991FF1CF869571056105B4
:1006700008940895E894BB2766277727CB0197F95C
:1006800008950BD0C4CFB5DF28F0BADF18F095235A
:1006900009F0A6CFABCF1124EECFCADFA0F3959F10
:1006A000D1F3950F50E0551F629FF001729FBB2759
:1006B000F00DB11D639FAA27F00DB11DAA1F649F05
:1006C0006627B00DA11D661F829F2227B00DA11DB8
:1006D000621F739FB00DA11D621F839FA00D611D3E
:1006E000221F749F3327A00D611D231F849F600D5F
:1006F000211D822F762F6A2F11249F5750408AF098
:10070000E1F088234AF0EE0FFF1FBB1F661F771F23
:10071000881F91505040A9F79E3F510570F060CF5F
:10072000AACF5F3FECF3983EDCF38695779567950B
:10073000B795F795E7959F5FC1F7FE2B880F911D41
:0C0740009695879597F90895F894FFCFDF
:00000001FF
