S01800004170706C6965645F526F626F746963732E73726563A9
S11300007AC0000097C0000095C0000093C00000B3
S113001091C0000097C300008DC000008BC0000099
S113002089C0000087C0000085C0000083C00000B4
S113003081C000007FC000007DC000007BC00000C4
S113004079C0000077C0000075C0000073C00000D4
S113005071C000006FC000006DC0000019C3000033
S113006069C0000086C3000065C0000063C00000D2
S113007061C000005FC000005DC000005BC0000004
S113008059C0000057C0000055C0000053C0000014
S113009051C000004FC000004DC000004BC0000024
S11300A049C0000047C0000045C0000043C0000034
S11300B041C000003FC000003DC000003BC0000044
S11300C039C0000037C0000035C0000033C0000054
S11300D031C000002FC000002DC000002BC0000064
S11300E029C000003A023C0277027D0202033A036F
S11300F03D034103450311241FBECFEFD1E2DEBF10
S1130100CDBF00E00CBF12E0A0E0B2E0E6EAFBE005
S113011000E00BBF02C007900D92A433B107D9F7DA
S113012022E0A4E3B2E001C01D92A138B207E1F7D6
S113013080D137C565CFE1ECF0E0808188698083A8
S1130140A2ECB0E08C9186608C938081806880837F
S11301501092C50087E68093C4000895EEE6F0E0AF
S113016080818160808385B5856085BD16BC0895D6
S1130170E0EBF0E0808183688083E1EBF0E0808154
S1130180816080831092B300249A0895EAE6F0E037
S1130190808182608083EC9A08959091C00095FFDD
S11301A0FCCF8093C6000895CF93DF93EC0189912F
S11301B0882311F0F2DFFBCFDF91CF9108958F9266
S11301C09F92AF92BF92CF92DF92EF92FF92809173
S11301D07D0290917E02A0917F02B0918002809373
S11301E0600290936102A0936202B0936302C09094
S11301F05C02D0905D02E0905E02F0905F02C092DB
S11302007402D0927502E0927602F09277028090A6
S1130210470290904802A0904902B0904A02A5017A
S11302209401C701B60150D418167CF080904B029B
S113023090904C02A0904D02B0904E02A501940102
S1130240C701B60123D387FF08C08092740290923D
S11302507502A0927602B0927702FF90EF90DF9041
S1130260CF90BF90AF909F908F900895CF92DF92E0
S1130270EF92FF92CF93DF93EC01181619060CF05E
S113028042C0BC01882777FD8095982F6DD36B0100
S11302907C016091000270910102882777FD8095AE
S11302A0982F62D39B01AC01C701B601F3D26B0155
S11302B07C019B01AC0160916502709166028091A2
S11302C067029091680204D4609365027093660299
S11302D08093670290936802A7019601609143029C
S11302E0709144028091450290914602D3D260936A
S11302F04302709344028093450290934602D09344
S11303000102C0930002DF91CF91FF90EF90DF9044
S1130310CF9008954F925F926F927F928F929F92A7
S1130320AF92BF92CF92DF92EF92FF926B017C016A
S113033049015A01C9D318160CF45EC0C0924B028D
S1130340D0924C02E0924D02F0924E02809247020B
S113035090924802A0924902B0924A0240905C02F4
S113036050905D0260905E0270905F02A50194015E
S1130370C301B201A9D318164CF480925C02909286
S11303805D02A0925E02B0925F020FC0A7019601C7
S1130390C301B2017BD287FF08C0C0925C02D09235
S11303A05D02E0925E02F0925F024090740250900F
S11303B075026090760270907702A5019401C301E2
S11303C0B20182D318164CF4809274029092750292
S11303D0A0927602B09277020FC0A7019601C301E2
S11303E0B20154D287FF08C0C0927402D092750241
S11303F0E0927602F0927702FF90EF90DF90CF9038
S1130400BF90AF909F908F907F906F905F904F9030
S11304100895CF93C1E0019709F0C0E080913602BE
S113042091E08927C81301C0CADEC0933602CF9178
S1130430089581DE93DE9CDEA9DE84B1806B84B9ED
S113044087B18F6087B97894C1E086E0282ED4E024
S1130450412C512C90EC692E762C23E0322E02E0B4
S11304601FEAE0914202F0E0E930F105E8F7EE58C6
S1130470FF4F91C360DE09C180913802823058F188
S1130480809139028ADE80913A028F5F86DE809104
S11304903902813019F42D9A1093B30080913902F6
S11304A0823049F47ADE80913A0277DE80913A0212
S11304B08093B3002D9880913902833039F482E01F
S11304C092E072DE2F9800934202CBCFC093420297
S11304D01092380202C0C09342022FEF84E39CE0E2
S11304E0215080409040E1F700C00000CEC08CE075
S11304F092E05ADE30924202B4CF81E090E089DF8C
S1130500109235021092340282E390E0AFDE20E0D4
S113051030E04FE753E460E070E0CB01FBDE809114
S1130520000290910102BC01882777FD8095982FE5
S11305301BD220E030E04AE754E4ACD16B017C01EB
S113054080E090E0A0ECB0E48093790290937A028A
S1130550A0937B02B0937C022AE939E949E15FE385
S1130560C701B601B5D24B015C016093650270937B
S113057066028093670290936802A70196016AE974
S113058079E989E19FE386D16B017C0160934302A1
S11305907093440280934502909346028091340202
S11305A090913502019721F54092790250927A0296
S11305B060927B0270927C02A501940160E070E07D
S11305C0CB01FFD06093650270936602809367024B
S11305D090936802A701960160E070E0CB01F1D02E
S11305E060934302709344028093450290934602C1
S11305F0E6DD10924F0210925002109251021092B6
S1130600520235C080913802823030F1F0903902C4
S113061091E0F91206C080E090E0FBDEF092420225
S113062020CF809139028330A1F480913A02B5DD64
S1130630F0903A026F2D70E080E090E093D16093E7
S11306404F027093500280935102909352028F2D67
S1130650A4DD1092380202C0D0934202AFEFB1EE93
S113066024E0A150B0402040E1F700C00000D09346
S11306704202F7CE20924202F4CE86E192E094DD6B
S113068004C088E080934202ECCEC0934202E9CEDB
S11306901F920F920FB60F9211240BB60F922F9345
S11306A03F934F935F936F937F938F939F93AF93F6
S11306B0BF93EF93FF93809164028C3319F480917C
S11306C040026BDD809164028C3021F5109264024B
S11306D080914002909141024CE251E0849F90014C
S11306E0859F300D949F300D112430935B0220932D
S11306F05A02A0E0B0E080933C0290933D02A093A4
S11307003E02B0933F02109241021092400281E0F7
S113071080933B02809164028F5F80936402FF9117
S1130720EF91BF91AF919F918F917F916F915F9165
S11307304F913F912F910F900BBE0F900FBE0F90D2
S11307401F9018951F920F920FB60F9211248F933A
S11307509F938091400290914102019690934102AF
S1130760809340029F918F910F900FBE0F901F9026
S113077018951F920F920FB60F9211240BB60F9279
S11307808F93EF93FF93E0913802F0E08091C600DD
S1130790E75CFD4F8083809138028F5F809338023D
S11307A080913802823018F081E080933702FF9103
S11307B0EF918F910F900BBE0F900FBE0F901F9073
S11307C018955058BB27AA270ED044C135D130F014
S11307D03AD120F031F49F3F11F41EF42AC10EF4F3
S11307E0E095E7FB20C1E92F46D180F3BA176207F1
S11307F073078407950718F071F49EF55EC10EF433
S1130800E0950B2EBA2FA02D0B01B90190010C011C
S1130810CA01A0011124FF27591B99F0593F50F434
S1130820503E68F11A16F040A22F232F342F44278C
S1130830585FF3CF469537952795A795F040539584
S1130840C9F77EF41F16BA0B620B730B840BBAF054
S11308509150A1F0FF0FBB1F661F771F881FC2F7BF
S11308600EC0BA0F621F731F841F48F487957795D3
S11308706795B795F7959E3F08F0B3CF9395880F8A
S113088008F09927EE0F979587950895A8D008F456
S113089081E008950CD0DEC0D6D040F0CDD030F049
S11308A021F45F3F19F0BFC0511108C1C2C0E3D0A9
S11308B098F39923C9F35523B1F3951B550BBB2723
S11308C0AA2762177307840738F09F5F5F4F220FD0
S11308D0331F441FAA1FA9F333D00E2E3AF0E0E8C9
S11308E030D091505040E695001CCAF729D0FE2F15
S11308F027D0660F771F881FBB1F261737074807A7
S1130900AB07B0E809F0BB0B802DBF01FF2793585C
S11309105F4F2AF09E3F510568F085C0CFC05F3F0E
S1130920ECF3983EDCF3869577956795B795F79544
S11309309F5FC9F7880F911D9695879597F908953C
S1130940E1E0660F771F881FBB1F621773078407D8
S1130950BA0720F0621B730B840BBA0BEE1F88F7E7
S1130960E0950895E89409C097FB3EF4909580952E
S1130970709561957F4F8F4F9F4F9923A9F0F92F61
S113098096E9BB279395F695879577956795B795DF
S1130990F111F8CFFAF4BB0F11F460FF1BC06F5FC5
S11309A07F4F8F4F9F4F16C0882311F096E911C0D7
S11309B0772321F09EE8872F762F05C0662371F0F8
S11309C096E8862F70E060E02AF09A95660F771F0C
S11309D0881FDAF7880F9695879597F90895990FE8
S11309E00008550FAA0BE0E8FEEF16161706E807F5
S11309F0F907C0F012161306E407F50798F0621B16
S1130A00730B840B950B39F40A2661F0232B242BEA
S1130A10252B21F408950A2609F4A140A6958FEF09
S1130A20811D811D089597F99F6780E870E060E05B
S1130A3008959FEF80EC089500240A941616170673
S1130A4018060906089500240A94121613061406BB
S1130A5005060895092E0394000C11F4882352F01E
S1130A60BB0F40F4BF2B11F460FF04C06F5F7F4FD6
S1130A708F4F9F4F089557FD9058440F551F59F0BD
S1130A805F3F71F04795880F97FB991F61F09F3F77
S1130A9079F087950895121613061406551FF2CFA0
S1130AA04695F1DF08C0161617061806991FF1CFF0
S1130AB086957105610508940895E894BB27662717
S1130AC07727CB0197F908958ADF08F48FEF08950B
S1130AD00BD0C0CFB1DF28F0B6DF18F0952309F0B2
S1130AE0A2CFA7CF1124EACFC6DFA0F3959FD1F3FD
S1130AF0950F50E0551F629FF001729FBB27F00DC8
S1130B00B11D639FAA27F00DB11DAA1F649F66271C
S1130B10B00DA11D661F829F2227B00DA11D621F6B
S1130B20739FB00DA11D621F839FA00D611D221F25
S1130B30749F3327A00D611D231F849F600D211D09
S1130B40822F762F6A2F11249F5750408AF0E1F0AC
S1130B5088234AF0EE0FFF1FBB1F661F771F881FF5
S1130B6091505040A9F79E3F510570F05CCFA6CF3D
S1130B705F3FECF3983EDCF3869577956795B795E0
S1130B80F795E7959F5FC1F7FE2B880F911D96950A
S1130B90879597F90895EE0FFF1F0590F491E02DC6
S1090BA01994F894FFCF44
S1130BA63200546F2049444355500A00496E204987
S1130BB6444355500A00436F7272656374696E67E5
S1130BC6206572726F727321205472792061676195
S1070BD6696E21001F
S9030000FC
