S01800004170706C6965645F526F626F746963732E73726563A9
S113000071C000008EC000008CC00000AEC50000AE
S113001088C0000086C000008CC5000082C00000BB
S113002080C000007EC000007CC000007AC00000D8
S113003078C0000076C0000074C0000072C00000E8
S113004070C000006EC000006CC000006AC00000F8
S113005068C0000066C0000064C00000E4C4000082
S113006060C00000A8C500005CC000005AC00000C9
S113007058C0000056C0000054C0000052C0000028
S113008050C000004EC000004CC000004AC0000038
S113009048C0000046C0000044C0000042C0000048
S11300A040C000003EC000003CC000003AC0000058
S11300B038C0000036C0000034C0000032C0000068
S11300C030C000002EC000002CC000002AC0000078
S11300D028C0000026C0000024C0000022C0000088
S11300E020C0000011241FBECFEFD1E2DEBFCDBF80
S11300F000E00CBF12E0A0E0B2E0EAE3F0E100E0CF
S11301000BBF02C007900D92A230B107D9F722E0CD
S1130110A2E0B2E001C01D92A235B207E1F7AED36E
S11301208AC76ECF4F925F926F927F928F929F9207
S1130130AF92BF92CF92DF92EF92FF920F931F93F1
S1130140CF93DF93CDB7DEB728970FB6F894DEBF11
S11301500FBECDBF4B015C0129833A834B835C8383
S1130160ED82FE820F831887609100027091010274
S1130170882777FD8095982F47D620E030E04AE71E
S113018054E4ACD52B013C0180924A0290924B027C
S1130190A0924C02B0924D029B01AC0169817A811C
S11301A08B819C81E5D66B017C0160933602709350
S11301B037028093380290933902A30192016D8132
S11301C07E818F8198858AD52B013C016093120230
S11301D0709313028093140290931502809102028B
S11301E090910302019751F5A501940160E070E03C
S11301F0CB010BD560934A0270934B0280934C025F
S113020090934D02A701960160E070E0CB01FDD40C
S113021060933602709337028093380290933902C8
S1130220A301920160E070E0CB01EFD4609312026D
S113023070931302809314029093150228960FB6BC
S1130240F894DEBF0FBECDBFDF91CF911F910F9108
S1130250FF90EF90DF90CF90BF90AF909F908F90E2
S11302607F906F905F904F900895E1ECF0E0808173
S113027088698083A2ECB0E08C9186608C93808145
S1130280806880831092C50087E68093C400089537
S1130290EEE6F0E080818160808385B5846085BD71
S11302A016BC0895E0E8F0E0808183688083E1E88B
S11302B0F0E080818960808384B1806684B9109283
S11302C087001092860010928B0010928A00089585
S11302D0E0E9F0E08081826F8083E1E9F0E08081F1
S11302E08C61808382EE94E09093970080939600D3
S11302F0909399008093980090939B0080939A0028
S11303008DB188618DB90895E1E2F1E08081876063
S113031080831092250110922401089552985A9ACC
S11303206D98759AE9E6F0E08081806280838DB3F0
S113033084628DBB08959A98A29A989AA098089579
S113034028B1207F28B920E030E0662309F451C0A9
S11303502817390709F450C040910502411120C003
S11303604398409AEFE9FFE03197F1F700C00000AD
S11303704098419AEFE9FFE03197F1F700C000009F
S11303804198429AEFE9FFE03197F1F700C000008D
S11303904298439AEFE9FFE03197F1F700C000007B
S11303A02F5F3F4FD5CF40910502411120C04198A6
S11303B0409AEFE9FFE03197F1F700C00000409860
S11303C0439AEFE9FFE03197F1F700C0000043984A
S11303D0429AEFE9FFE03197F1F700C0000042983C
S11303E0419AEFE9FFE03197F1F700C000002F5F79
S11303F03F4F28173907B9F688B1807F88B9089527
S11304004F925F926F927F928F929F92AF92BF9220
S1130410CF92DF92EF92FF92CF93DF93CDB7DEB707
S113042028970FB6F894DEBF0FBECDBF80910402AB
S1130430882309F4D4C040904E0250904F0260903B
S1130440500270905102A301920160911E027091BA
S11304501F028091200290912102D7D369837A836D
S11304608B839C832091360230913702409138026D
S1130470509139027DD52091450230914602409138
S1130480470250914802C2D34B015C01609345027C
S1130490709346028093470290934802C0901602DC
S11304A0D0901702E0901802F0901902A70196016B
S11304B05BD518164CF4C0924502D0924602E092E5
S11304C04702F09248021FC080911A0290911B02C9
S11304D0A0911C02B0911D028D839E83AF83B887C7
S11304E09C01AD01C501B401F5D387FF0CC08D811A
S11304F09E81AF81B8858093450290934602A09374
S11305004702B093480220914A0230914B02409135
S11305104C0250914D0269817A818B819C8128D54E
S11305202091450230914602409147025091480281
S11305306DD34B015C012091310230913202409124
S1130540330250913402C301B2015FD320911202ED
S113055030911302409114025091150209D59B0168
S1130560AC01C501B40151D34B015C0160932D0270
S113057070932E0280932F0290933002A70196016C
S1130580F3D418167CF0C0901A02D0901B02E090AD
S11305901C02F0901D02A7019601C501B4019AD373
S11305A087FF08C0C0922D02D0922E02E0922F0243
S11305B0F092300260912D0270912E0280912F02F0
S11305C090913002F3D37093890060938800409235
S11305D031025092320260923302709234022896B1
S11305E00FB6F894DEBF0FBECDBFDF91CF91FF9061
S11305F0EF90DF90CF90BF90AF909F908F907F90BF
S11306006F905F904F9008958F929F92AF92BF9298
S1130610CF92DF92EF92FF9280914E0290914F021F
S1130620A0915002B0915102809331029093320212
S1130630A0933302B0933402C0902D02D0902E02C6
S1130640E0902F02F0903002C0924502D092460210
S1130650E0924702F09248028090160290901702AE
S1130660A0901802B0901902A5019401C701B60127
S11306707BD418167CF080901A0290901B02A090F4
S11306801C02B0901D02A5019401C701B60122D33A
S113069087FF08C08092450290924602A0924702CA
S11306A0B0924802FF90EF90DF90CF90BF90AF9050
S11306B09F908F900895CF92DF92EF92FF92CF9305
S11306C0DF93EC01181619060CF042C0BC01882710
S11306D077FD8095982F98D36B017C01609100027F
S11306E070910102882777FD8095982F8DD39B0107
S11306F0AC01C701B601F2D26B017C019B01AC01D4
S113070060913602709137028091380290913902DB
S11307102FD46093360270933702809338029093FB
S11307203902A7019601609112027091130280911F
S1130730140290911502D2D26093120270931302A4
S11307408093140290931502D0930102C093000287
S1130750DF91CF91FF90EF90DF90CF9008954F926B
S11307605F926F927F928F929F92AF92BF92CF923D
S1130770DF92EF92FF926B017C0149015A01F4D39D
S113078018160CF45EC0C0921A02D0921B02E092BA
S11307901C02F0921D028092160290921702A092FF
S11307A01802B092190240902D0250902E026090CF
S11307B02F0270903002A5019401C301B201D4D379
S11307C018164CF480922D0290922E02A0922F02C1
S11307D0B09230020FC0A7019601C301B2017AD2D0
S11307E087FF08C0C0922D02D0922E02E0922F0201
S11307F0F0923002409045025090460260904702C9
S113080070904802A5019401C301B201ADD318163A
S11308104CF48092450290924602A0924702B09214
S113082048020FC0A7019601C301B20153D287FF4A
S113083008C0C0924502D0924602E0924702F0926C
S11308404802FF90EF90DF90CF90BF90AF909F90C1
S11308508F907F906F905F904F900895CF93C1E0F9
S1130860019709F0C0E08091040291E08927C81340
S113087001C0CADEC0930402CF910895F6DC08DDFE
S113088011DD26DD41DD4ADD56DDE12CF12C870149
S113089020E030E040E050E460E070E080E890E484
S11308A041DC84E090E007DF20E030EC4FE754E4E3
S11308B0C801B70154DF81E090E0D0DF1092030259
S11308C010920202A1DEE0921E02F0921F02009337
S11308D020021093210284B1806984B987B18F60AA
S11308E087B97894C3EDD4E080910502882309F494
S11308F093C0809107028838F1F46091080270E097
S113090080E090E07FD260931E0270931F02809378
S11309102002909321026091090270E080E090E04F
S113092071D29B01AC01E12CF12C870160E070E0F5
S113093080E890E4F7DB80910702843421F4D093BB
S11309409B00C0939A0080910702811114C02F9AD2
S1130950809108026091090270E0782B882777FD66
S11309608095982F51D260931E0270931F0280933A
S1130970200290932102809107028130A1F42F98E4
S1130980809108026091090270E0782B882777FD36
S11309908095982F39D260931E0270931F02809322
S11309A020029093210280910702803449F4D0936D
S11309B09900C093980081E080930C0210920D027C
S11309C080910702843051F4209108028091090239
S11309D090E0922B90939B0080939A008091070261
S11309E0823051F41092050220910802809109028C
S11309F090E061E0922BA4DC80910702833051F4F3
S1130A0010920502209108028091090290E060E0B2
S1130A10922B96DC109205028FE99FE00197F1F783
S1130A2000C0000061CF1F920F920FB60F921124E5
S1130A300BB60F922F933F934F935F936F937F93D4
S1130A408F939F93AF93BF93EF93FF93809135025E
S1130A50909135029C3311F0883749F580910D024D
S1130A60853030F083E994E0909399008093980066
S1130A7080910B02823048F085E894E090939900CD
S1130A808093980081E080930C0280910C0288236B
S1130A9029F080910D028F5F80930D0280910A02EC
S1130AA0882329F080910B028F5F80930B02809141
S1130AB03502883711F410923502809135028F5F28
S1130AC080933502609124017091250180E090E0CB
S1130AD099D160930E0270930F0280931002909349
S1130AE01102109225011092240180910E0290911E
S1130AF00F02A0911002B091110280934E029093C4
S1130B004F02A0935002B09351027ADCFF91EF910F
S1130B10BF91AF919F918F917F916F915F914F9111
S1130B203F912F910F900BBE0F900FBE0F901F900F
S1130B3018951F920F920FB60F9211248F939F93C3
S1130B4083E994E0909399008093980010920C02AA
S1130B5010920D0210920A0210920B029F918F9133
S1130B600F900FBE0F901F9018951F920F920FB603
S1130B700F9211242F938F939F9310920C02109233
S1130B800D022FEF89EF90E0215080409040E1F773
S1130B9000C0000083E994E090939900809398004A
S1130BA081E080930A029F918F912F910F900FBE45
S1130BB00F901F9018951F920F920FB60F92112449
S1130BC00BB60F928F93EF93FF93E0910602F0E040
S1130BD08091C600E95FFD4F8083809106028F5F9C
S1130BE08093060280910602833028F01092060258
S1130BF081E080930502FF91EF918F910F900BBEDE
S1130C000F900FBE0F901F9018955058BB27AA271E
S1130C100ED070C161D130F066D120F031F49F3F25
S1130C2011F41EF456C10EF4E095E7FB4CC1E92F14
S1130C3072D180F3BA17620773078407950718F017
S1130C4071F49EF58AC10EF4E0950B2EBA2FA02DF7
S1130C500B01B90190010C01CA01A0011124FF2765
S1130C60591B99F0593F50F4503E68F11A16F04060
S1130C70A22F232F342F4427585FF3CF469537955F
S1130C802795A795F0405395C9F77EF41F16BA0B24
S1130C90620B730B840BBAF09150A1F0FF0FBB1FD2
S1130CA0661F771F881FC2F70EC0BA0F621F731F1B
S1130CB0841F48F4879577956795B795F7959E3F78
S1130CC008F0B3CF9395880F08F09927EE0F979506
S1130CD087950895D4D008F481E008950CD00AC112
S1130CE002D140F0F9D030F021F45F3F19F0EBC0AD
S1130CF0511134C1EEC00FD198F39923C9F3552390
S1130D00B1F3951B550BBB27AA27621773078407FA
S1130D1038F09F5F5F4F220F331F441FAA1FA9F3B0
S1130D2033D00E2E3AF0E0E830D091505040E695A2
S1130D30001CCAF729D0FE2F27D0660F771F881F03
S1130D40BB1F261737074807AB07B0E809F0BB0BF2
S1130D50802DBF01FF2793585F4F2AF09E3F510516
S1130D6068F0B1C0FBC05F3FECF3983EDCF38695BE
S1130D7077956795B795F7959F5FC9F7880F911D8C
S1130D809695879597F90895E1E0660F771F881F78
S1130D90BB1F621773078407BA0720F0621B730B2B
S1130DA0840BBA0BEE1F88F7E0950895BCD088F049
S1130DB09F5790F0B92F9927B751A0F0D1F0660F43
S1130DC0771F881F991F1AF0BA95C9F712C0B1305E
S1130DD081F0C3D0B1E00895C0C0672F782F882771
S1130DE0B85F39F0B93FCCF3869577956795B3959D
S1130DF0D9F73EF490958095709561957F4F8F4F0C
S1130E009F4F0895E89409C097FB3EF49095809510
S1130E10709561957F4F8F4F9F4F9923A9F0F92FBC
S1130E2096E9BB279395F695879577956795B7953A
S1130E30F111F8CFFAF4BB0F11F460FF1BC06F5F20
S1130E407F4F8F4F9F4F16C0882311F096E911C032
S1130E50772321F09EE8872F762F05C0662371F053
S1130E6096E8862F70E060E02AF09A95660F771F67
S1130E70881FDAF7880F9695879597F90895990F43
S1130E800008550FAA0BE0E8FEEF16161706E80750
S1130E90F907C0F012161306E407F50798F0621B71
S1130EA0730B840B950B39F40A2661F0232B242B46
S1130EB0252B21F408950A2609F4A140A6958FEF65
S1130EC0811D811D089597F99F6780E870E060E0B7
S1130ED008959FEF80EC089500240A9416161706CF
S1130EE018060906089500240A9412161306140617
S1130EF005060895092E0394000C11F4882352F07A
S1130F00BB0F40F4BF2B11F460FF04C06F5F7F4F31
S1130F108F4F9F4F089557FD9058440F551F59F018
S1130F205F3F71F04795880F97FB991F61F09F3FD2
S1130F3079F087950895121613061406551FF2CFFB
S1130F404695F1DF08C0161617061806991FF1CF4B
S1130F5086957105610508940895E894BB27662772
S1130F607727CB0197F908958ADF08F48FEF089566
S1130F700BD0C0CFB1DF28F0B6DF18F0952309F00D
S1130F80A2CFA7CF1124EACFC6DFA0F3959FD1F358
S1130F90950F50E0551F629FF001729FBB27F00D23
S1130FA0B11D639FAA27F00DB11DAA1F649F662778
S1130FB0B00DA11D661F829F2227B00DA11D621FC7
S1130FC0739FB00DA11D621F839FA00D611D221F81
S1130FD0749F3327A00D611D231F849F600D211D65
S1130FE0822F762F6A2F11249F5750408AF0E1F008
S1130FF088234AF0EE0FFF1FBB1F661F771F881F51
S113100091505040A9F79E3F510570F05CCFA6CF98
S11310105F3FECF3983EDCF3869577956795B7953B
S1131020F795E7959F5FC1F7FE2B880F911D969565
S10D1030879597F90895F894FFCF0F
S105103A32007E
S9030000FC
