:1000000071C000008EC000008CC00000DCC5000084
:1000100088C0000086C00000BEC5000082C000008D
:1000200080C000007EC000007CC000007AC00000DC
:1000300078C0000076C0000074C0000072C00000EC
:1000400070C000006EC000006CC000006AC00000FC
:1000500068C0000066C0000064C000001DC500004C
:1000600060C00000DCC500005CC000005AC0000099
:1000700058C0000056C0000054C0000052C000002C
:1000800050C000004EC000004CC000004AC000003C
:1000900048C0000046C0000044C0000042C000004C
:1000A00040C000003EC000003CC000003AC000005C
:1000B00038C0000036C0000034C0000032C000006C
:1000C00030C000002EC000002CC000002AC000007C
:1000D00028C0000026C0000024C0000022C000008C
:1000E00020C0000011241FBECFEFD1E2DEBFCDBF84
:1000F00000E00CBF12E0A0E0B2E0E2EAF0E100E0D4
:100100000BBF02C007900D92AE30B107D9F722E0C5
:10011000AEE0B2E001C01D92AC35B207E1F7C0D34A
:10012000BEC76ECF4F925F926F927F928F929F92D7
:10013000AF92BF92CF92DF92EF92FF920F931F93F5
:10014000CF93DF93CDB7DEB728970FB6F894DEBF15
:100150000FBECDBF4B015C0129833A834B835C8387
:10016000ED82FE820F831887609100027091010278
:10017000882777FD8095982F7BD620E030E04AE7EE
:1001800054E4E0D52B013C01809254029092550238
:10019000A0925602B09257029B01AC0169817A810C
:1001A0008B819C8119D76B017C0160934002709315
:1001B00041028093420290934302A30192016D8118
:1001C0007E818F819885BED52B013C0160931C02F6
:1001D00070931D0280931E0290931F0280910E0265
:1001E00090910F02019751F5A501940160E070E034
:1001F000CB013FD560935402709355028093560211
:1002000090935702A701960160E070E0CB0131D5D1
:1002100060934002709341028093420290934302A4
:10022000A301920160E070E0CB0123D560931C0232
:1002300070931D0280931E0290931F0228960FB6A2
:10024000F894DEBF0FBECDBFDF91CF911F910F910C
:10025000FF90EF90DF90CF90BF90AF909F908F90E6
:100260007F906F905F904F900895E1ECF0E0808177
:1002700088698083A2ECB0E08C9186608C93808149
:10028000806880831092C50087E68093C40008953B
:10029000EEE6F0E080818160808385B5846085BD75
:1002A00016BC0895E0E8F0E08081836A8083E1E88D
:1002B000F0E080818961808384B1806684B9109286
:1002C00089001092880010928B0010928A00089585
:1002D000E0E9F0E08081826C8083E1E9F0E08081F8
:1002E0008C61808382EE94E09093970080939600D7
:1002F000909399008093980090939B0080939A002C
:100300008DB188618DB90895E1E2F1E08081876067
:1003100080831092250110922401089552985A9AD0
:100320006D98759AE9E6F0E08081806280838DB3F4
:1003300084628DBB08959091C00095FFFCCF80939F
:10034000C6000895CF93DF93EC018991882311F0C3
:10035000F2DFFBCFDF91CF9108959A98A29A989AF5
:10036000A098089528B1207F28B920E030E06623C6
:1003700009F451C02817390709F450C040911102FF
:10038000411120C04398409AEFE9FFE03197F1F71F
:1003900000C000004098419AEFE9FFE03197F1F783
:1003A00000C000004198429AEFE9FFE03197F1F771
:1003B00000C000004298439AEFE9FFE03197F1F75F
:1003C00000C000002F5F3F4FD5CF40911102411177
:1003D00020C04198409AEFE9FFE03197F1F700C063
:1003E00000004098439AEFE9FFE03197F1F700C031
:1003F00000004398429AEFE9FFE03197F1F700C01F
:1004000000004298419AEFE9FFE03197F1F700C010
:1004100000002F5F3F4F28173907B9F688B1807F5A
:1004200088B908954F925F926F927F928F929F92B8
:10043000AF92BF92CF92DF92EF92FF92CF93DF9372
:10044000CDB7DEB728970FB6F894DEBF0FBECDBF8D
:1004500080911002882309F4D4C040905802509033
:10046000590260905A0270905B02A3019201609160
:1004700028027091290280912A0290912B02F9D3CF
:1004800069837A838B839C8320914002309141025F
:1004900040914202509143029FD520914F023091EA
:1004A00050024091510250915202E4D34B015C0141
:1004B00060934F02709350028093510290935202C6
:1004C000C0902002D0902102E0902202F0902302FE
:1004D000A70196017DD518164CF4C0924F02D09218
:1004E0005002E0925102F09252021FC08091240209
:1004F00090912502A0912602B09127028D839E83C0
:10050000AF83B8879C01AD01C501B40117D487FF43
:100510000CC08D819E81AF81B88580934F029093EE
:100520005002A0935102B093520220915402309194
:100530005502409156025091570269817A818B8110
:100540009C814AD520914F02309150024091510236
:10055000509152028FD34B015C0120913B023091AC
:100560003C0240913D0250913E02C301B20181D351
:1005700020911C0230911D0240911E0250911F02D9
:100580002BD59B01AC01C501B40173D34B015C01B8
:1005900060933702709338028093390290933A0245
:1005A000A701960115D518167CF0C0902402D090B2
:1005B0002502E0902602F0902702A7019601C501CE
:1005C000B401BCD387FF08C0C0923702D092380272
:1005D000E0923902F0923A0260913702709138024B
:1005E0008091390290913A0215D4709389006093FA
:1005F000880040923B0250923C0260923D02709211
:100600003E0228960FB6F894DEBF0FBECDBFDF9135
:10061000CF91FF90EF90DF90CF90BF90AF909F90E1
:100620008F907F906F905F904F9008958F929F92E0
:10063000AF92BF92CF92DF92EF92FF9280915802D9
:1006400090915902A0915A02B0915B0280933B02B3
:1006500090933C02A0933D02B0933E02C0903702BB
:10066000D0903802E0903902F0903A02C0924F02E6
:10067000D0925002E0925102F092520280902002F9
:1006800090902102A0902202B0902302A501940133
:10069000C701B6019DD418167CF08090240290907A
:1006A0002502A0902602B0902702A5019401C7015F
:1006B000B60144D387FF08C080924F029092500247
:1006C000A0925102B0925202FF90EF90DF90CF9033
:1006D000BF90AF909F908F900895CF92DF92EF924E
:1006E000FF92CF93DF93EC01181619060CF042C06D
:1006F000BC01882777FD8095982FBAD36B017C01C8
:100700006091000270910102882777FD8095982FF3
:10071000AFD39B01AC01C701B60114D36B017C01BF
:100720009B01AC01609140027091410280914202B4
:100730009091430251D460934002709341028093A0
:10074000420290934302A701960160911C027091AE
:100750001D0280911E0290911F02F4D260931C0230
:1007600070931D0280931E0290931F02D09301028A
:10077000C0930002DF91CF91FF90EF90DF90CF9078
:1007800008954F925F926F927F928F929F92AF9255
:10079000BF92CF92DF92EF92FF926B017C014901F1
:1007A0005A0116D418160CF45EC0C0922402D092DE
:1007B0002502E0922602F092270280922002909277
:1007C0002102A0922202B092230240903702509060
:1007D00038026090390270903A02A5019401C30179
:1007E000B201F6D318164CF4809237029092380278
:1007F000A0923902B0923A020FC0A7019601C3013C
:10080000B2019CD287FF08C0C0923702D092380252
:10081000E0923902F0923A0240904F02509050021A
:100820006090510270905202A5019401C301B2017F
:10083000CFD318164CF480924F0290925002A0929F
:100840005102B09252020FC0A7019601C301B2013A
:1008500075D287FF08C0C0924F02D0925002E0923A
:100860005102F0925202FF90EF90DF90CF90BF9034
:10087000AF909F908F907F906F905F904F90089572
:10088000CF93C1E0019709F0C0E08091100291E0A0
:100890008927C81301C0CADEC0931002CF91089502
:1008A000E4DCF6DCFFDC14DD2FDD38DD56DDE12C89
:1008B000F12C870120E030E040E050E460E070E09F
:1008C00080E890E42FDC84E090E007DF20E030EF68
:1008D0004FE755E4C801B70154DF81E090E0D0DF75
:1008E00010920F0210920E02A1DEE0922802F09206
:1008F000290200932A0210932B0284B1806984B9E3
:1009000087B18F6087B97894C3EDD4E080ECD82E9E
:1009100094E2C92E80911102882309F49AC0809133
:10092000130209DD8091140206DD8091150203DDBA
:10093000809113028838F1F46091140270E080E035
:1009400090E094D2609328027093290280932A0247
:1009500090932B026091150270E080E090E086D2C7
:100960009B01AC01E12CF12C870160E070E080E894
:1009700090E4D8DB80911302843421F4D0939B005F
:10098000C0939A0080911302893941F480919100BB
:100990008D25809391008DB38C258DBB80911302A2
:1009A000811114C02F98809114026091150270E09B
:1009B000782B882777FD8095982F5AD2609328024C
:1009C0007093290280932A0290932B028091130244
:1009D0008130A1F42F9A809114026091150270E089
:1009E000782B882777FD8095982F42D26093280234
:1009F0007093290280932A0290932B028091130214
:100A0000803449F4D0939900C093980081E080939A
:100A100016021092170280911302823051F4109244
:100A20001102209114028091150290E061E0922B56
:100A300099DC80911302833051F4109211022091BD
:100A400014028091150290E060E0922B8BDC1092F2
:100A500011028091880090918900883E9340A8F00F
:100A6000609118027091190280911A0290911B02F4
:100A700020E030E0A90162D1811107C01092890005
:100A80001092880082E092E05DDC8FE99FE00197A0
:100A9000F1F700C000003ECF1F920F920FB60F92E9
:100AA00011240BB60F922F933F934F935F936F9345
:100AB0007F938F939F93AF93BF93EF93FF93809117
:100AC0003F0290913F029C3311F08E31B9F4809136
:100AD0001702833030F083E994E09093990080937B
:100AE000980080911602882329F0809117028F5F69
:100AF00080931702929B02C087E71DDC80913F0222
:100B00008C3369F4609118027091190280911A0275
:100B100090911B027FD1862F0EDC10923F028091B4
:100B20003F028F5F80933F02609124017091250105
:100B300080E090E09BD1609318027093190280933B
:100B40001A0290931B0210922501109224018091A9
:100B5000180290911902A0911A02B0911B02809381
:100B6000580290935902A0935A02B0935B025ADC48
:100B7000FF91EF91BF91AF919F918F917F916F9175
:100B80005F914F913F912F910F900BBE0F900FBE31
:100B90000F901F9018951F920F920FB60F9211246D
:100BA0008F939F9383E994E09093990080939800AA
:100BB00010921602109217029F918F910F900FBE04
:100BC0000F901F9018951F920F920FB60F9211243D
:100BD0002F938F939F93109216021092170283E91E
:100BE00094E090939900809398002FEF89EF90E024
:100BF000215080409040E1F700C0000081E08093E8
:100C0000160285E894E090939900809398009F9154
:100C10008F912F910F900FBE0F901F9018951F92DC
:100C20000F920FB60F9211240BB60F928F93EF9382
:100C3000FF93E0911202F0E08091C600ED5EFD4F5F
:100C40008083809112028F5F809312028091120242
:100C5000833028F01092120281E080931102FF91FC
:100C6000EF918F910F900BBE0F900FBE0F901F90C2
:100C700018955058BB27AA270ED070C161D130F00B
:100C800066D120F031F49F3F11F41EF456C10EF4EA
:100C9000E095E7FB4CC1E92F72D180F3BA176207E8
:100CA00073078407950718F071F49EF58AC10EF456
:100CB000E0950B2EBA2FA02D0B01B90190010C016C
:100CC000CA01A0011124FF27591B99F0593F50F484
:100CD000503E68F11A16F040A22F232F342F4427DC
:100CE000585FF3CF469537952795A795F0405395D4
:100CF000C9F77EF41F16BA0B620B730B840BBAF0A4
:100D00009150A1F0FF0FBB1F661F771F881FC2F70E
:100D10000EC0BA0F621F731F841F48F48795779522
:100D20006795B795F7959E3F08F0B3CF9395880FD9
:100D300008F09927EE0F979587950895D4D008F479
:100D400081E008950CD00AC102D140F0F9D030F012
:100D500021F45F3F19F0EBC0511134C1EEC00FD147
:100D600098F39923C9F35523B1F3951B550BBB2772
:100D7000AA2762177307840738F09F5F5F4F220F1F
:100D8000331F441FAA1FA9F333D00E2E3AF0E0E818
:100D900030D091505040E695001CCAF729D0FE2F64
:100DA00027D0660F771F881FBB1F261737074807F6
:100DB000AB07B0E809F0BB0B802DBF01FF279358AC
:100DC0005F4F2AF09E3F510568F0B1C0FBC05F3F06
:100DD000ECF3983EDCF3869577956795B795F79594
:100DE0009F5FC9F7880F911D9695879597F908958C
:100DF000E1E0660F771F881FBB1F62177307840728
:100E0000BA0720F0621B730B840BBA0BEE1F88F736
:100E1000E0950895BCD088F09F5790F0B92F99279E
:100E2000B751A0F0D1F0660F771F881F991F1AF0F5
:100E3000BA95C9F712C0B13081F0C3D0B1E00895BE
:100E4000C0C0672F782F8827B85F39F0B93FCCF33F
:100E5000869577956795B395D9F73EF490958095EB
:100E6000709561957F4F8F4F9F4F0895E89409C00B
:100E700097FB3EF490958095709561957F4F8F4FCD
:100E80009F4F9923A9F0F92F96E9BB279395F695E3
:100E9000879577956795B795F111F8CFFAF4BB0F61
:100EA00011F460FF1BC06F5F7F4F8F4F9F4F16C0C5
:100EB000882311F096E911C0772321F09EE8872F4F
:100EC000762F05C0662371F096E8862F70E060E00B
:100ED0002AF09A95660F771F881FDAF7880F969584
:100EE000879597F90895990F0008550FAA0BE0E828
:100EF000FEEF16161706E807F907C0F012161306DC
:100F0000E407F50798F0621B730B840B950B39F41B
:100F10000A2661F0232B242B252B21F408950A2681
:100F200009F4A140A6958FEF811D811D089597F9C1
:100F30009F6780E870E060E008959FEF80EC08957F
:100F400000240A94161617061806090608950024A8
:100F50000A9412161306140605060895092E039422
:100F6000000C11F4882352F0BB0F40F4BF2B11F496
:100F700060FF04C06F5F7F4F8F4F9F4F089557FDF5
:100F80009058440F551F59F05F3F71F04795880FF7
:100F900097FB991F61F09F3F79F08795089512168E
:100FA00013061406551FF2CF4695F1DF08C016163A
:100FB00017061806991FF1CF8695710561050894EB
:100FC0000895E894BB2766277727CB0197F9089502
:100FD0008ADF08F48FEF08950BD0C0CFB1DF28F07F
:100FE000B6DF18F0952309F0A2CFA7CF1124EACFDE
:100FF000C6DFA0F3959FD1F3950F50E0551F629F78
:10100000F001729FBB27F00DB11D639FAA27F00D61
:10101000B11DAA1F649F6627B00DA11D661F829F88
:101020002227B00DA11D621F739FB00DA11D621F6D
:10103000839FA00D611D221F749F3327A00D611D8A
:10104000231F849F600D211D822F762F6A2F11246C
:101050009F5750408AF0E1F088234AF0EE0FFF1FBF
:10106000BB1F661F771F881F91505040A9F79E3FF6
:10107000510570F05CCFA6CF5F3FECF3983EDCF3F8
:10108000869577956795B795F795E7959F5FC1F733
:10109000FE2B880F911D9695879597F90895F894E2
:0210A000FFCF80
:0E10A20032004D4F544F52205354414C4C00DD
:00000001FF
