:1000000071C000008EC000008CC000003FC2000024
:1000100088C0000018C200002DC2000082C000008D
:1000200080C000007EC000007CC000007AC00000DC
:1000300078C0000076C0000074C0000072C00000EC
:1000400070C000006EC000006CC000006AC00000FC
:1000500068C0000066C0000064C000009AC10000D3
:1000600060C0000022C200005CC000005AC0000056
:1000700058C0000056C0000054C0000052C000002C
:1000800050C000004EC000004CC000004AC000003C
:1000900048C0000046C0000044C0000042C000004C
:1000A00040C000003EC000003CC000003AC000005C
:1000B00038C0000036C0000034C0000032C000006C
:1000C00030C000002EC000002CC000002AC000007C
:1000D00028C0000026C0000024C0000022C000008C
:1000E00020C0000011241FBECFEFD1E2DEBFCDBF84
:1000F00000E00CBF12E0A0E0B2E0EEEFF4E000E0C0
:100100000BBF02C007900D92A030B107D9F722E0D3
:10011000A0E0B2E001C01D92AB34B207E1F7F0D02D
:10012000ECC16ECFE1ECF0E0808188698083A2ECC5
:10013000B0E08C9186608C9380818068808310927F
:10014000C50087E68093C4000895EEE6F0E0808164
:100150008160808385B5856085BD16BC0895E0EB20
:10016000F0E08081836A8083E1EBF0E08081816050
:1001700080831092B300249AE1E0F1E080818064F2
:100180008083089552985A9A6D98759AE9E6F0E03E
:10019000808180628083EAE6F0E080818A608083EB
:1001A0008DB384638DBB08959091C00095FFFCCF03
:1001B0008093C600089590E0A0E0B0E0409107026F
:1001C000509108026091090270910A028417950704
:1001D000A607B707A0F1209106022223B9F32091C8
:1001E0000002309101022F3F310534F42F5F3F4F61
:1001F0003093010220930002209100022093B3006B
:1002000010920602DBCF481759076A077B0700F1F7
:10021000209106022223B9F32091000230910102BD
:100220001216130634F42150310930930102209341
:100230000002209100022093B30010920602409128
:100240000702509108026091090270910A02DBCF07
:10025000089598B1907F98B998B1936098B990E05B
:1002600020E030E0662341F1281739070CF548B14A
:100270004C6048B9EFE1FEE43197F1F700C00000AF
:100280004298EFE1FEE43197F1F700C00000439897
:10029000EFE1FEE43197F1F700C00000429AEFE190
:1002A000FEE43197F1F700C000002F5F3F4FDCCF35
:1002B00088B1807F88B9089528173907CCF7429A0A
:1002C000EFE1FEE43197F1F700C000004398EFE161
:1002D000FEE43197F1F700C000004298EFE1FEE440
:1002E0003197F1F700C0000048B14C6048B9EFE128
:1002F000FEE43197F1F700C000002F5F3F4FDCCFE5
:1003000011DF23DF2CDF3EDF84B1806B84B987B13E
:100310008F6087B97894CFEE80910302823078F1B4
:100320008091040241DF809105023EDF809104024A
:10033000811105C02D98809105028093B3008091B2
:100340000402813021F42D9A8091050234DF8091DE
:100350000402803411F4C093B4008091040282300E
:1003600021F48091050261E074DF80910402833002
:1003700021F48091050260E06CDF109203022FEF00
:1003800084E39CE0215080409040E1F700C00000F1
:10039000C3CF1F920F920FB60F9211240BB60F927C
:1003A0002F933F934F935F936F937F938F939F937D
:1003B000AF93BF93EF93FF9380912E028C3319F488
:1003C00080910B02F1DE80912E028C3021F510928B
:1003D0002E0280910B0290910C024CE251E0849F1E
:1003E0009001859F300D949F300D1124309325028C
:1003F00020932402A0E0B0E08093070290930802CB
:10040000A0930902B0930A0210920C0210920B0200
:1004100081E08093060280912E028F5F80932E02EE
:10042000FF91EF91BF91AF919F918F917F916F91CC
:100430005F914F913F912F910F900BBE0F900FBE88
:100440000F901F9018951F920F920FB60F921124C4
:100450008F939F9380910B0290910C020196909341
:100460000C0280930B029F918F910F900FBE0F9003
:100470001F9018951F920F920FB60F921124109291
:10048000B4000F900FBE0F901F9018951F920F92FF
:100490000FB60F9211248F938DE78093B4008F9144
:1004A0000F900FBE0F901F9018951F920F920FB6CE
:1004B0000F9211240BB60F928F93EF93FF93E0915D
:1004C0000302F0E08091C600EC5FFD4F80838091D5
:1004D00003028F5F8093030280910302823018F041
:1004E00081E080930202FF91EF918F910F900BBEFC
:0E04F0000F900FBE0F901F901895F894FFCF3D
:00000001FF
