:1000000071C000008EC000008CC0000071C50000EF
:1000100088C0000086C0000057C5000082C00000F4
:1000200080C000007EC000007CC000007AC00000DC
:1000300078C0000076C0000074C0000072C00000EC
:1000400070C000006EC000006CC000006AC00000FC
:1000500068C0000066C0000064C00000D5C4000095
:1000600060C000006AC500005CC000005AC000000B
:1000700058C0000056C0000054C0000052C000002C
:1000800050C000004EC000004CC000004AC000003C
:1000900048C0000046C0000044C0000042C000004C
:1000A00040C000003EC000003CC000003AC000005C
:1000B00038C0000036C0000034C0000032C000006C
:1000C00030C000002EC000002CC000002AC000007C
:1000D00028C0000026C0000024C0000022C000008C
:1000E00020C0000011241FBECFEFD1E2DEBFCDBF84
:1000F00000E00CBF12E0A0E0B2E0EEEBFFE000E0B9
:100100000BBF02C007900D92A230B107D9F722E0D1
:10011000A2E0B2E001C01D92AE34B207E1F7AAD36B
:100120004CC76ECF4F925F926F927F928F929F9249
:10013000AF92BF92CF92DF92EF92FF920F931F93F5
:10014000CF93DF93CDB7DEB728970FB6F894DEBF15
:100150000FBECDBF4B015C0129833A834B835C8387
:10016000ED82FE820F831887609100027091010278
:10017000882777FD8095982F09D620E030E04AE760
:1001800054E46ED52B013C018092460290924702C6
:10019000A0924802B09249029B01AC0169817A8128
:1001A0008B819C81A7D66B017C0160933202709396
:1001B00033028093340290933502A30192016D8142
:1001C0007E818F8198854CD52B013C0160930E0276
:1001D00070930F028093100290931102809102029B
:1001E00090910302019751F5A501940160E070E040
:1001F000CB01CDD4609346027093470280934802AE
:1002000090934902A701960160E070E0CB01BFD452
:1002100060933202709333028093340290933502DC
:10022000A301920160E070E0CB01B1D460930E02B3
:1002300070930F02809310029093110228960FB6CC
:10024000F894DEBF0FBECDBFDF91CF911F910F910C
:10025000FF90EF90DF90CF90BF90AF909F908F90E6
:100260007F906F905F904F9008954F925F926F9242
:100270007F928F929F92AF92BF92CF92DF92EF9236
:10028000FF926B017C0149015A0160931602709341
:100290001702809318029093190220931202309350
:1002A000130240931402509315024090290250907B
:1002B0002A0260902B0270902C02C301B20116D664
:1002C00018164CF48092290290922A02A0922B02D6
:1002D000B0922C020FC0A7019601C301B201BCD499
:1002E00087FF08C0C0922902D0922A02E0922B0216
:1002F000F0922C02409041025090420260904302E2
:1003000070904402A5019401C301B201EFD5181603
:100310004CF48092410290924202A0924302B09229
:1003200044020FC0A7019601C301B20195D487FF13
:1003300008C0C0924102D0924202E0924302F09281
:100340004402FF90EF90DF90CF90BF90AF909F90CE
:100350008F907F906F905F904F900895E1ECF0E068
:10036000808188698083A2ECB0E08C9186608C9358
:100370008081806880831092C50087E68093C400E6
:100380000895EEE6F0E080818160808385B5846029
:1003900085BD16BC0895E0E8F0E08081836A808323
:1003A000E1E8F0E080818960808384B1806684B96F
:1003B000109289001092880010928B0010928A008F
:1003C0000895E0E9F0E08081826C8083E1E9F0E06B
:1003D00080818C61808382EE94E09093970080937B
:1003E0009600909399008093980090939B0080933F
:1003F0009A008DB188618DB90895E1E2F1E08081C4
:1004000087608083109225011092240108955298EC
:100410005A9A6D98759AE9E6F0E08081806280834F
:100420008DB384628DBB08959091C00095FFFCCF81
:100430008093C600089528B1207F28B920E030E0DD
:10044000662309F451C02817390709F450C04091B8
:100450000502411120C04398409AEFE9FFE031972F
:10046000F1F700C000004098419AEFE9FFE03197B2
:10047000F1F700C000004198429AEFE9FFE03197A0
:10048000F1F700C000004298439AEFE9FFE031978E
:10049000F1F700C000002F5F3F4FD5CF409105021C
:1004A000411120C04198409AEFE9FFE03197F1F700
:1004B00000C000004098439AEFE9FFE03197F1F760
:1004C00000C000004398429AEFE9FFE03197F1F74E
:1004D00000C000004298419AEFE9FFE03197F1F740
:1004E00000C000002F5F3F4F28173907B9F688B1C9
:1004F000807F88B908954F925F926F927F928F921A
:100500009F92AF92BF92CF92DF92EF92FF92CF93E2
:10051000DF93CDB7DEB728970FB6F894DEBF0FBED6
:10052000CDBF80910402882309F4D4C040904A02D0
:1005300050904B0260904C0270904D02A3019201CA
:1005400060911A0270911B0280911C0290911D0211
:100550001ED369837A838B839C83209132023091EE
:1005600033024091340250913502C4D420914102AB
:1005700030914202409143025091440209D34B0111
:100580005C01609341027093420280934302909316
:100590004402C0901202D0901302E0901402F09036
:1005A0001502A7019601A2D418164CF4C09241027C
:1005B000D0924202E0924302F09244021FC0809126
:1005C000160290911702A0911802B09119028D8322
:1005D0009E83AF83B8879C01AD01C501B4013CD3B4
:1005E00087FF0CC08D819E81AF81B88580934102C9
:1005F00090934202A0934302B0934402209146029A
:1006000030914702409148025091490269817A81B4
:100610008B819C816FD420914102309142024091A4
:10062000430250914402B4D24B015C0120912D024F
:1006300030912E0240912F0250913002C301B2013D
:10064000A6D220910E0230910F02409110025091DB
:10065000110250D49B01AC01C501B40198D24B01E9
:100660005C016093290270932A0280932B0290937D
:100670002C02A70196013AD418167CF0C0901602FD
:10068000D0901702E0901802F0901902A70196018D
:10069000C501B401E1D287FF08C0C0922902D092FF
:1006A0002A02E0922B02F0922C02609129027091B2
:1006B0002A0280912B0290912C023AD370938900E8
:1006C0006093880040922D0250922E0260922F0279
:1006D0007092300228960FB6F894DEBF0FBECDBFE1
:1006E000DF91CF91FF90EF90DF90CF90BF90AF90D0
:1006F0009F908F907F906F905F904F9008958F9212
:100700009F92AF92BF92CF92DF92EF92FF92809131
:100710004A0290914B02A0914C02B0914D028093FD
:100720002D0290932E02A0932F02B0933002C0901E
:100730002902D0902A02E0902B02F0902C02C09265
:100740004102D0924202E0924302F0924402809031
:10075000120290901302A0901402B0901502A5010D
:100760009401C701B601C2D318167CF0809016021E
:1007700090901702A0901802B0901902A501940160
:10078000C701B60169D287FF08C0809241029092EA
:100790004202A0924302B0924402FF90EF90DF9099
:1007A000CF90BF90AF909F908F900895CF92DF929F
:1007B000EF92FF92CF93DF93EC01181619060CF01D
:1007C00042C0BC01882777FD8095982FDFD26B014E
:1007D0007C016091000270910102882777FD80956D
:1007E000982FD4D29B01AC01C701B60139D26B015D
:1007F0007C019B01AC0160913202709133028091C7
:1008000034029091350276D36093320270933302B2
:100810008093340290933502A701960160910E02F5
:1008200070910F02809110029091110219D2609381
:100830000E0270930F028093100290931102D093D6
:100840000102C0930002DF91CF91FF90EF90DF9003
:10085000CF900895CF93C1E0019709F0C0E0809157
:10086000040291E08927C81301C049DFC093040244
:10087000CF91089573DD85DD8EDDA3DDBEDDC7DD9F
:10088000E12CF12C870120E030E040E050E460E012
:1008900070E080E890E446DC84E090E087DF20E0D0
:1008A00030EC4FE754E4C801B701DFDC81E090E0B1
:1008B000D1DF109203021092020221DFE0921A02AD
:1008C000F0921B0200931C0210931D0284B18069F8
:1008D00084B987B18F6087B97894C3EDD4E08091F3
:1008E0000502882309F489C0809107029DDD80916B
:1008F00008029ADD8091090297DD8091070288380D
:10090000F1F46091080270E080E090E03DD26093E5
:100910001A0270931B0280931C0290931D02609137
:10092000090270E080E090E02FD29B01AC01E12C45
:10093000F12C870160E070E080E890E4F3DB8091C7
:100940000702843421F4D0939B00C0939A008091D5
:100950000702811114C02F9880910802609109024A
:1009600070E0782B882777FD8095982F0FD26093C1
:100970001A0270931B0280931C0290931D028091B7
:1009800007028130A1F42F9A809108026091090238
:1009900070E0782B882777FD8095982FF7D16093AA
:1009A0001A0270931B0280931C0290931D02809187
:1009B0000702803421F4D0939900C093980080916D
:1009C0000702823051F410920502209108028091B2
:1009D000090290E061E0922B2EDD809107028330C6
:1009E00051F410920502209108028091090290E0D2
:1009F00060E0922B20DD109205028FE99FE00197C5
:100A0000F1F700C000006BCF1F920F920FB60F924C
:100A100011240BB60F922F933F934F935F936F93D5
:100A20007F938F939F93AF93BF93EF93FF938091A7
:100A300031028C3369F460910A0270910B0280914B
:100A40000C0290910D0274D1862FEEDC10923102CF
:100A5000809131028F5F8093310260912401709107
:100A6000250180E090E090D160930A0270930B0220
:100A700080930C0290930D02109225011092240194
:100A800080910A0290910B02A0910C02B0910D028C
:100A900080934A0290934B02A0934C02B0934D0274
:100AA0002ADDFF91EF91BF91AF919F918F917F913F
:100AB0006F915F914F913F912F910F900BBE0F90CF
:100AC0000FBE0F901F9018951F920F920FB60F92A6
:100AD00011248F939F9383E994E0909399008093DE
:100AE00098009F918F910F900FBE0F901F901895B7
:100AF0001F920F920FB60F9211242F938F939F93F3
:100B000083E994E090939900809398002FEF89EF08
:100B100090E0215080409040E1F700C0000085E85F
:100B200094E090939900809398009F918F912F91DA
:100B30000F900FBE0F901F9018951F920F920FB637
:100B40000F9211240BB60F928F93EF93FF93E091C6
:100B50000602F0E08091C600E95FFD4F808380913E
:100B600006028F5F8093060280910602833028F090
:100B70001092060281E080930502FF91EF918F9120
:100B80000F900BBE0F900FBE0F901F9018955058EE
:100B9000BB27AA270ED070C161D130F066D120F0FA
:100BA00031F49F3F11F41EF456C10EF4E095E7FBBB
:100BB0004CC1E92F72D180F3BA176207730784071B
:100BC000950718F071F49EF58AC10EF4E0950B2E8E
:100BD000BA2FA02D0B01B90190010C01CA01A0018F
:100BE0001124FF27591B99F0593F50F4503E68F1EA
:100BF0001A16F040A22F232F342F4427585FF3CF2B
:100C0000469537952795A795F0405395C9F77EF4FB
:100C10001F16BA0B620B730B840BBAF09150A1F044
:100C2000FF0FBB1F661F771F881FC2F70EC0BA0FCA
:100C3000621F731F841F48F4879577956795B79552
:100C4000F7959E3F08F0B3CF9395880F08F099274A
:100C5000EE0F979587950895D4D008F481E0089514
:100C60000CD00AC102D140F0F9D030F021F45F3F3E
:100C700019F0EBC0511134C1EEC00FD198F3992394
:100C8000C9F35523B1F3951B550BBB27AA27621750
:100C90007307840738F09F5F5F4F220F331F441F95
:100CA000AA1FA9F333D00E2E3AF0E0E830D09150CD
:100CB0005040E695001CCAF729D0FE2F27D0660FBA
:100CC000771F881FBB1F261737074807AB07B0E8F9
:100CD00009F0BB0B802DBF01FF2793585F4F2AF00F
:100CE0009E3F510568F0B1C0FBC05F3FECF3983EFA
:100CF000DCF3869577956795B795F7959F5FC9F76C
:100D0000880F911D9695879597F90895E1E0660FF4
:100D1000771F881FBB1F621773078407BA0720F06D
:100D2000621B730B840BBA0BEE1F88F7E0950895D6
:100D3000BCD088F09F5790F0B92F9927B751A0F0F9
:100D4000D1F0660F771F881F991F1AF0BA95C9F75F
:100D500012C0B13081F0C3D0B1E00895C0C0672F98
:100D6000782F8827B85F39F0B93FCCF3869577950F
:100D70006795B395D9F73EF49095809570956195F8
:100D80007F4F8F4F9F4F0895E89409C097FB3EF423
:100D900090958095709561957F4F8F4F9F4F9923C8
:100DA000A9F0F92F96E9BB279395F6958795779546
:100DB0006795B795F111F8CFFAF4BB0F11F460FF06
:100DC0001BC06F5F7F4F8F4F9F4F16C0882311F05E
:100DD00096E911C0772321F09EE8872F762F05C072
:100DE000662371F096E8862F70E060E02AF09A950D
:100DF000660F771F881FDAF7880F9695879597F902
:100E00000895990F0008550FAA0BE0E8FEEF16169B
:100E10001706E807F907C0F012161306E407F507EE
:100E200098F0621B730B840B950B39F40A2661F062
:100E3000232B242B252B21F408950A2609F4A14005
:100E4000A6958FEF811D811D089597F99F6780E812
:100E500070E060E008959FEF80EC089500240A940C
:100E60001616170618060906089500240A94121685
:100E70001306140605060895092E0394000C11F4B8
:100E8000882352F0BB0F40F4BF2B11F460FF04C065
:100E90006F5F7F4F8F4F9F4F089557FD9058440FBE
:100EA000551F59F05F3F71F04795880F97FB991FC9
:100EB00061F09F3F79F08795089512161306140686
:100EC000551FF2CF4695F1DF08C016161706180613
:100ED000991FF1CF86957105610508940895E894EE
:100EE000BB2766277727CB0197F908958ADF08F497
:100EF0008FEF08950BD0C0CFB1DF28F0B6DF18F028
:100F0000952309F0A2CFA7CF1124EACFC6DFA0F323
:100F1000959FD1F3950F50E0551F629FF001729F8E
:100F2000BB27F00DB11D639FAA27F00DB11DAA1FAD
:100F3000649F6627B00DA11D661F829F2227B00DFA
:100F4000A11D621F739FB00DA11D621F839FA00D85
:100F5000611D221F749F3327A00D611D231F849FD5
:100F6000600D211D822F762F6A2F11249F5750402C
:100F70008AF0E1F088234AF0EE0FFF1FBB1F661FC7
:100F8000771F881F91505040A9F79E3F510570F080
:100F90005CCFA6CF5F3FECF3983EDCF38695779568
:100FA0006795B795F795E7959F5FC1F7FE2B880F7B
:0E0FB000911D9695879597F90895F894FFCFB7
:020FBE003200FF
:00000001FF
