S01800004170706C6965645F526F626F746963732E73726563A9
S113000071C000008EC000008CC000008AC00000D7
S113001088C0000060C1000084C0000082C00000ED
S113002080C000007EC000007CC000007AC00000D8
S113003078C0000076C0000074C0000072C00000E8
S113004070C000006EC000006CC000006AC00000F8
S113005068C0000066C0000064C00000E2C0000088
S113006060C000004FC100005CC000005AC0000026
S113007058C0000056C0000054C0000052C0000028
S113008050C000004EC000004CC000004AC0000038
S113009048C0000046C0000044C0000042C0000048
S11300A040C000003EC000003CC000003AC0000058
S11300B038C0000036C0000034C0000032C0000068
S11300C030C000002EC000002CC000002AC0000078
S11300D028C0000026C0000024C0000022C0000088
S11300E020C0000011241FBECFEFD1E2DEBFCDBF80
S11300F000E00CBF12E0A0E0B2E0E8E5F3E000E0CD
S11301000BBF02C007900D92AA30B107D9F722E0C5
S1130110AAE0B2E001C01D92A335B207E1F746D0D0
S113012019C16ECFE1ECF0E0808188698083A2EC94
S1130130B0E08C9186608C9380818068808310927B
S1130140C50087E68093C4000895EEE6F0E0808160
S11301508160808385B5856085BD16BC0895E0EB1C
S1130160F0E0808183688083E1EBF0E0808181604E
S113017080831092B300249A0895EAE6F0E0808127
S113018082608083EC9A08959091C00095FFFCCF23
S11301908093C6000895CF93DF93EC01899188235F
S11301A011F0F2DFFBCFDF91CF910895BBDFCDDFFC
S11301B0D6DFE3DF84B1806B84B987B18F6087B900
S11301C0789480910B02823010F180910C02DCDF74
S11301D080910D02D9DF80910C02813029F42D9A8F
S11301E080910D028093B30080910C02823029F437
S11301F080910D028093B3002D9880910C0283307E
S113020021F480E092E0C7DF2F9810920B022FEFC9
S113021084E39CE0215080409040E1F700C000005E
S1130220D0CF1F920F920FB60F9211240BB60F92DC
S11302302F933F934F935F936F937F938F939F93EA
S1130240AF93BF93EF93FF93809136028C3319F4ED
S11302508091130299DF809136028C3021F510923F
S1130260360280911302909114024CE251E0849F73
S11302709001859F300D949F300D112430932D02F1
S113028020932C02A0E0B0E080930F029093100220
S1130290A0931102B093120210921402109213024E
S11302A081E080930E02809136028F5F8093360244
S11302B0FF91EF91BF91AF919F918F917F916F913A
S11302C05F914F913F912F910F900BBE0F900FBEF6
S11302D00F901F9018951F920F920FB60F92112432
S11302E08F939F938091130290911402019690939F
S11302F01402809313029F918F910F900FBE0F9061
S11303001F9018951F920F920FB60F9211240BB6DF
S11303100F928F93EF93FF93E0910B02F0E08091A3
S1130320C600E45FFD4F808380910B028F5F809352
S11303300B0280910B02823018F081E080930A0254
S1130340FF91EF918F910F900BBE0F900FBE0F9006
S10B03501F901895F894FFCFEB
S10D0358546F2049444355500A0035
S9030000FC
